{
  "_format": "hh-sol-artifact-1",
  "contractName": "SimpleStorage",
  "sourceName": "contracts/SimpleStorage.sol",
  "abi": [
    {
      "inputs": [
        {
          "internalType": "uint8",
          "name": "v",
          "type": "uint8"
        },
        {
          "internalType": "bytes32",
          "name": "r",
          "type": "bytes32"
        },
        {
          "internalType": "bytes32",
          "name": "s",
          "type": "bytes32"
        },
        {
          "internalType": "address",
          "name": "sender",
          "type": "address"
        },
        {
          "internalType": "uint256",
          "name": "x",
          "type": "uint256"
        }
      ],
      "name": "executeSetIfSignatureMatch",
      "outputs": [],
      "stateMutability": "nonpayable",
      "type": "function"
    },
    {
      "inputs": [],
      "name": "get",
      "outputs": [
        {
          "internalType": "uint256",
          "name": "",
          "type": "uint256"
        }
      ],
      "stateMutability": "view",
      "type": "function"
    },
    {
      "inputs": [
        {
          "internalType": "uint256",
          "name": "x",
          "type": "uint256"
        }
      ],
      "name": "set",
      "outputs": [],
      "stateMutability": "nonpayable",
      "type": "function"
    }
  ],
  "bytecode": "0x608060405234801561001057600080fd5b5061094a806100206000396000f3fe608060405234801561001057600080fd5b50600436106100415760003560e01c806360fe47b1146100465780636d4ce63c14610062578063735e062514610080575b600080fd5b610060600480360381019061005b9190610510565b61009c565b005b61006a6100a6565b6040516100779190610824565b60405180910390f35b61009a60048036038101906100959190610539565b6100af565b005b8060008190555050565b60008054905090565b600046905061053990506100c281610361565b60007f8b73c3c69bb8fe3d512ecc4cf759cc79239f7b179b0ffacaa9a75d522b39400f6040518060400160405280600781526020017f5365745465737400000000000000000000000000000000000000000000000000815250805190602001206040518060400160405280600181526020017f310000000000000000000000000000000000000000000000000000000000000081525080519060200120843060405160200161017595949392919061074c565b60405160208183030381529060405280519060200120905060007f3ad2a343ef2dc53677d4768a78e7c8f0aff9e9d85b88ca3cbf0cc036de5989fe85856040516020016101c493929190610715565b604051602081830303815290604052805190602001209050600082826040516020016101f19291906106c3565b60405160208183030381529060405280519060200120905060006001828b8b8b6040516000815260200160405260405161022e949392919061079f565b6020604051602081039080840390855afa158015610250573d6000803e3d6000fd5b505050602060405103519050610265876103fa565b61026e816103fa565b8673ffffffffffffffffffffffffffffffffffffffff168173ffffffffffffffffffffffffffffffffffffffff16146102dc576040517f08c379a00000000000000000000000000000000000000000000000000000000081526004016102d390610804565b60405180910390fd5b600073ffffffffffffffffffffffffffffffffffffffff168173ffffffffffffffffffffffffffffffffffffffff16141561034c576040517f08c379a0000000000000000000000000000000000000000000000000000000008152600401610343906107e4565b60405180910390fd5b6103558661009c565b50505050505050505050565b6103f7816040516024016103759190610824565b6040516020818303038152906040527ff5b1bba9000000000000000000000000000000000000000000000000000000007bffffffffffffffffffffffffffffffffffffffffffffffffffffffff19166020820180517bffffffffffffffffffffffffffffffffffffffffffffffffffffffff8381831617835250505050610493565b50565b6104908160405160240161040e91906106fa565b6040516020818303038152906040527f2c2ecbc2000000000000000000000000000000000000000000000000000000007bffffffffffffffffffffffffffffffffffffffffffffffffffffffff19166020820180517bffffffffffffffffffffffffffffffffffffffffffffffffffffffff8381831617835250505050610493565b50565b60008151905060006a636f6e736f6c652e6c6f679050602083016000808483855afa5050505050565b6000813590506104cb816108b8565b92915050565b6000813590506104e0816108cf565b92915050565b6000813590506104f5816108e6565b92915050565b60008135905061050a816108fd565b92915050565b60006020828403121561052257600080fd5b6000610530848285016104e6565b91505092915050565b600080600080600060a0868803121561055157600080fd5b600061055f888289016104fb565b9550506020610570888289016104d1565b9450506040610581888289016104d1565b9350506060610592888289016104bc565b92505060806105a3888289016104e6565b9150509295509295909350565b6105b98161085b565b82525050565b6105c88161086d565b82525050565b6105df6105da8261086d565b6108ae565b82525050565b60006105f260188361083f565b91507f45434453413a20696e76616c6964207369676e617475726500000000000000006000830152602082019050919050565b6000610632600283610850565b91507f19010000000000000000000000000000000000000000000000000000000000006000830152600282019050919050565b6000610672601d8361083f565b91507f4d7946756e6374696f6e3a20696e76616c6964207369676e61747572650000006000830152602082019050919050565b6106ae81610897565b82525050565b6106bd816108a1565b82525050565b60006106ce82610625565b91506106da82856105ce565b6020820191506106ea82846105ce565b6020820191508190509392505050565b600060208201905061070f60008301846105b0565b92915050565b600060608201905061072a60008301866105bf565b61073760208301856105b0565b61074460408301846106a5565b949350505050565b600060a08201905061076160008301886105bf565b61076e60208301876105bf565b61077b60408301866105bf565b61078860608301856106a5565b61079560808301846105b0565b9695505050505050565b60006080820190506107b460008301876105bf565b6107c160208301866106b4565b6107ce60408301856105bf565b6107db60608301846105bf565b95945050505050565b600060208201905081810360008301526107fd816105e5565b9050919050565b6000602082019050818103600083015261081d81610665565b9050919050565b600060208201905061083960008301846106a5565b92915050565b600082825260208201905092915050565b600081905092915050565b600061086682610877565b9050919050565b6000819050919050565b600073ffffffffffffffffffffffffffffffffffffffff82169050919050565b6000819050919050565b600060ff82169050919050565b6000819050919050565b6108c18161085b565b81146108cc57600080fd5b50565b6108d88161086d565b81146108e357600080fd5b50565b6108ef81610897565b81146108fa57600080fd5b50565b610906816108a1565b811461091157600080fd5b5056fea2646970667358221220a4fd1d28eaaa5c07cfd773447e5af59133339ae4bffbfa7033c73ef894084f1f64736f6c63430008000033",
  "linkReferences": {},
  "deployedLinkReferences": {}
}